{
  "contractName": "Elixir",
  "abi": [
    {
      "constant": false,
      "inputs": [
        {
          "name": "_automation_tool",
          "type": "string"
        }
      ],
      "name": "initialize",
      "outputs": [],
      "payable": false,
      "stateMutability": "nonpayable",
      "type": "function"
    },
    {
      "constant": true,
      "inputs": [],
      "name": "elixir_automation_tool",
      "outputs": [
        {
          "name": "",
          "type": "string"
        }
      ],
      "payable": false,
      "stateMutability": "view",
      "type": "function"
    },
    {
      "constant": true,
      "inputs": [],
      "name": "automation_language",
      "outputs": [
        {
          "name": "",
          "type": "string"
        }
      ],
      "payable": false,
      "stateMutability": "view",
      "type": "function"
    }
  ],
  "bytecode": "0x608060405234801561001057600080fd5b50610559806100206000396000f300608060405260043610610057576000357c0100000000000000000000000000000000000000000000000000000000900463ffffffff16806314f34f571461005c5780639b6fe757146100ec578063f62d18881461017c575b600080fd5b34801561006857600080fd5b506100716101e5565b6040518080602001828103825283818151815260200191508051906020019080838360005b838110156100b1578082015181840152602081019050610096565b50505050905090810190601f1680156100de5780820380516001836020036101000a031916815260200191505b509250505060405180910390f35b3480156100f857600080fd5b50610101610287565b6040518080602001828103825283818151815260200191508051906020019080838360005b83811015610141578082015181840152602081019050610126565b50505050905090810190601f16801561016e5780820380516001836020036101000a031916815260200191505b509250505060405180910390f35b34801561018857600080fd5b506101e3600480360381019080803590602001908201803590602001908080601f016020809104026020016040519081016040528093929190818152602001838380828437820191505050505050919291929050505061032a565b005b606060338054600181600116156101000203166002900480601f01602080910402602001604051908101604052809291908181526020018280546001816001161561010002031660029004801561027d5780601f106102525761010080835404028352916020019161027d565b820191906000526020600020905b81548152906001019060200180831161026057829003601f168201915b5050505050905090565b6060603360405160200180828054600181600116156101000203166002900480156102e95780601f106102c75761010080835404028352918201916102e9565b820191906000526020600020905b8154815290600101906020018083116102d5575b5050807f203a207479706573637269707400000000000000000000000000000000000000815250600d01915050604051602081830303815290604052905090565b60008060019054906101000a900460ff168061034a5750610349610477565b5b8061036157506000809054906101000a900460ff16155b15156103fb576040517f08c379a000000000000000000000000000000000000000000000000000000000815260040180806020018281038252602e8152602001807f436f6e747261637420696e7374616e63652068617320616c726561647920626581526020017f656e20696e697469616c697a656400000000000000000000000000000000000081525060400191505060405180910390fd5b600060019054906101000a900460ff1690506001600060016101000a81548160ff02191690831515021790555060016000806101000a81548160ff0219169083151502179055508160339080519060200190610458929190610488565b5080600060016101000a81548160ff0219169083151502179055505050565b600080303b90506000811491505090565b828054600181600116156101000203166002900490600052602060002090601f016020900481019282601f106104c957805160ff19168380011785556104f7565b828001600101855582156104f7579182015b828111156104f65782518255916020019190600101906104db565b5b5090506105049190610508565b5090565b61052a91905b8082111561052657600081600090555060010161050e565b5090565b905600a165627a7a723058206fb59c509dfecd744cdcfbbb12a8baa9b52b22e54fc9b49de175e567f2691aa00029",
  "source": "pragma solidity ^0.4.24;\r\n\r\nimport \"zos-lib/contracts/Initializable.sol\";\r\n\r\ncontract Elixir is Initializable {\r\n    string automation_tool;\r\n\r\n    function initialize(string _automation_tool) public initializer {\r\n        automation_tool = _automation_tool;\r\n    }\r\n\r\n    function elixir_automation_tool() public view returns (string) {\r\n        return automation_tool;\r\n    }\r\n\r\n    function automation_language() public view returns (string) {\r\n        return string(abi.encodePacked(automation_tool, \" : typescript\"));\r\n    }\r\n}\r\n",
  "sourcePath": "C:\\Users\\abhilash.sharma\\Desktop\\Coding_Playground\\MediumBlogs\\zos_demo\\contracts\\Elixir.sol",
  "compiler": {
    "name": "solc",
    "version": "0.4.24+commit.e67f0147.Emscripten.clang"
  },
  "schemaVersion": "2.0.1",
  "updatedAt": "2018-12-17T20:16:28.451Z"
}